{
  "_format": "hh-sol-artifact-1",
  "contractName": "CroudFunding",
  "sourceName": "contracts/CroudFunding.sol",
  "abi": [
    {
      "inputs": [
        {
          "internalType": "uint256",
          "name": "",
          "type": "uint256"
        }
      ],
      "name": "campaigns",
      "outputs": [
        {
          "internalType": "address",
          "name": "owner",
          "type": "address"
        },
        {
          "internalType": "string",
          "name": "title",
          "type": "string"
        },
        {
          "internalType": "string",
          "name": "description",
          "type": "string"
        },
        {
          "internalType": "uint256",
          "name": "target",
          "type": "uint256"
        },
        {
          "internalType": "uint256",
          "name": "deadline",
          "type": "uint256"
        },
        {
          "internalType": "uint256",
          "name": "amountCollected",
          "type": "uint256"
        },
        {
          "internalType": "string",
          "name": "image",
          "type": "string"
        }
      ],
      "stateMutability": "view",
      "type": "function"
    },
    {
      "inputs": [
        {
          "internalType": "address",
          "name": "_owner",
          "type": "address"
        },
        {
          "internalType": "string",
          "name": "_title",
          "type": "string"
        },
        {
          "internalType": "string",
          "name": "_description",
          "type": "string"
        },
        {
          "internalType": "uint256",
          "name": "_target",
          "type": "uint256"
        },
        {
          "internalType": "uint256",
          "name": "_deadline",
          "type": "uint256"
        },
        {
          "internalType": "uint256",
          "name": "_amountCollected",
          "type": "uint256"
        },
        {
          "internalType": "string",
          "name": "_image",
          "type": "string"
        }
      ],
      "name": "createCampaign",
      "outputs": [
        {
          "internalType": "uint256",
          "name": "",
          "type": "uint256"
        }
      ],
      "stateMutability": "nonpayable",
      "type": "function"
    },
    {
      "inputs": [
        {
          "internalType": "uint256",
          "name": "_id",
          "type": "uint256"
        }
      ],
      "name": "donateToCampaign",
      "outputs": [],
      "stateMutability": "payable",
      "type": "function"
    },
    {
      "inputs": [],
      "name": "getCampaigns",
      "outputs": [
        {
          "components": [
            {
              "internalType": "address",
              "name": "owner",
              "type": "address"
            },
            {
              "internalType": "string",
              "name": "title",
              "type": "string"
            },
            {
              "internalType": "string",
              "name": "description",
              "type": "string"
            },
            {
              "internalType": "uint256",
              "name": "target",
              "type": "uint256"
            },
            {
              "internalType": "uint256",
              "name": "deadline",
              "type": "uint256"
            },
            {
              "internalType": "uint256",
              "name": "amountCollected",
              "type": "uint256"
            },
            {
              "internalType": "string",
              "name": "image",
              "type": "string"
            },
            {
              "internalType": "address[]",
              "name": "donators",
              "type": "address[]"
            },
            {
              "internalType": "uint256[]",
              "name": "donations",
              "type": "uint256[]"
            }
          ],
          "internalType": "struct CroudFunding.Campaign[]",
          "name": "",
          "type": "tuple[]"
        }
      ],
      "stateMutability": "view",
      "type": "function"
    },
    {
      "inputs": [
        {
          "internalType": "uint256",
          "name": "_id",
          "type": "uint256"
        }
      ],
      "name": "getDonators",
      "outputs": [
        {
          "internalType": "address[]",
          "name": "",
          "type": "address[]"
        },
        {
          "internalType": "uint256[]",
          "name": "",
          "type": "uint256[]"
        }
      ],
      "stateMutability": "view",
      "type": "function"
    },
    {
      "inputs": [],
      "name": "numberOfCampaigns",
      "outputs": [
        {
          "internalType": "uint256",
          "name": "",
          "type": "uint256"
        }
      ],
      "stateMutability": "view",
      "type": "function"
    }
  ],
  "bytecode": "0x60806040526000600155348015601457600080fd5b50610fc2806100246000396000f3fe6080604052600436106100555760003560e01c806307ca140d1461005a5780630fa91fa914610083578063141961bc146100b15780631453126e146100e457806342a4fda814610104578063a6b0363314610119575b600080fd5b34801561006657600080fd5b5061007060015481565b6040519081526020015b60405180910390f35b34801561008f57600080fd5b506100a361009e36600461093e565b61013b565b60405161007a929190610957565b3480156100bd57600080fd5b506100d16100cc36600461093e565b61020a565b60405161007a9796959493929190610a28565b3480156100f057600080fd5b506100706100ff366004610b37565b6103e7565b61011761011236600461093e565b6104af565b005b34801561012557600080fd5b5061012e61059c565b60405161007a9190610c7e565b600081815260208181526040918290206007810180548451818502810185019095528085526060948594929360080192909184918301828280156101a857602002820191906000526020600020905b81546001600160a01b0316815260019091019060200180831161018a575b50505050509150808054806020026020016040519081016040528092919081815260200182805480156101fa57602002820191906000526020600020905b8154815260200190600101908083116101e6575b5050505050905091509150915091565b600060208190529081526040902080546001820180546001600160a01b03909216929161023690610d8d565b80601f016020809104026020016040519081016040528092919081815260200182805461026290610d8d565b80156102af5780601f10610284576101008083540402835291602001916102af565b820191906000526020600020905b81548152906001019060200180831161029257829003601f168201915b5050505050908060020180546102c490610d8d565b80601f01602080910402602001604051908101604052809291908181526020018280546102f090610d8d565b801561033d5780601f106103125761010080835404028352916020019161033d565b820191906000526020600020905b81548152906001019060200180831161032057829003601f168201915b50505050509080600301549080600401549080600501549080600601805461036490610d8d565b80601f016020809104026020016040519081016040528092919081815260200182805461039090610d8d565b80156103dd5780601f106103b2576101008083540402835291602001916103dd565b820191906000526020600020905b8154815290600101906020018083116103c057829003601f168201915b5050505050905087565b6001546000908152602081905260408120600481015442116104245760405162461bcd60e51b815260040161041b90610dc1565b60405180910390fd5b80546001600160a01b0319166001600160a01b038a161781556001810161044b8982610e5c565b506002810161045a8882610e5c565b506003810186905560048101859055600581018490556006810161047e8482610e5c565b506001805490600061048f83610f31565b9190505550600180546104a29190610f4a565b9998505050505050505050565b6001546000908152602081905260409020600481015442116104e35760405162461bcd60e51b815260040161041b90610dc1565b600781018054600180820183556000928352602080842090920180546001600160a01b031916331790556008840180549182018155835290822034910181905582546040519192916001600160a01b039091169083908381818185875af1925050503d8060008114610571576040519150601f19603f3d011682016040523d82523d6000602084013e610576565b606091505b505090508015610596578183600501546105909190610f63565b60058401555b50505050565b6060600060015467ffffffffffffffff8111156105bb576105bb610a92565b60405190808252806020026020018201604052801561064457816020015b61063160405180610120016040528060006001600160a01b0316815260200160608152602001606081526020016000815260200160008152602001600081526020016060815260200160608152602001606081525090565b8152602001906001900390816105d95790505b50905060005b60015481101561093857600081815260208181526040918290208251610120810190935280546001600160a01b031683526001810180549193928492908401919061069490610d8d565b80601f01602080910402602001604051908101604052809291908181526020018280546106c090610d8d565b801561070d5780601f106106e25761010080835404028352916020019161070d565b820191906000526020600020905b8154815290600101906020018083116106f057829003601f168201915b5050505050815260200160028201805461072690610d8d565b80601f016020809104026020016040519081016040528092919081815260200182805461075290610d8d565b801561079f5780601f106107745761010080835404028352916020019161079f565b820191906000526020600020905b81548152906001019060200180831161078257829003601f168201915b505050505081526020016003820154815260200160048201548152602001600582015481526020016006820180546107d690610d8d565b80601f016020809104026020016040519081016040528092919081815260200182805461080290610d8d565b801561084f5780601f106108245761010080835404028352916020019161084f565b820191906000526020600020905b81548152906001019060200180831161083257829003601f168201915b50505050508152602001600782018054806020026020016040519081016040528092919081815260200182805480156108b157602002820191906000526020600020905b81546001600160a01b03168152600190910190602001808311610893575b505050505081526020016008820180548060200260200160405190810160405280929190818152602001828054801561090957602002820191906000526020600020905b8154815260200190600101908083116108f5575b50505050508152505083838151811061092457610924610f76565b60209081029190910101525060010161064a565b50919050565b60006020828403121561095057600080fd5b5035919050565b6040808252835190820181905260009060208501906060840190835b8181101561099a5783516001600160a01b0316835260209384019390920191600101610973565b50508381036020808601919091528551808352918101925085019060005b818110156109d65782518452602093840193909201916001016109b8565b50919695505050505050565b6000815180845260005b81811015610a08576020818501810151868301820152016109ec565b506000602082860101526020601f19601f83011685010191505092915050565b6001600160a01b038816815260e060208201819052600090610a4c908301896109e2565b8281036040840152610a5e81896109e2565b90508660608401528560808401528460a084015282810360c0840152610a8481856109e2565b9a9950505050505050505050565b634e487b7160e01b600052604160045260246000fd5b600082601f830112610ab957600080fd5b813567ffffffffffffffff811115610ad357610ad3610a92565b604051601f8201601f19908116603f0116810167ffffffffffffffff81118282101715610b0257610b02610a92565b604052818152838201602001851015610b1a57600080fd5b816020850160208301376000918101602001919091529392505050565b600080600080600080600060e0888a031215610b5257600080fd5b87356001600160a01b0381168114610b6957600080fd5b9650602088013567ffffffffffffffff811115610b8557600080fd5b610b918a828b01610aa8565b965050604088013567ffffffffffffffff811115610bae57600080fd5b610bba8a828b01610aa8565b955050606088013593506080880135925060a0880135915060c088013567ffffffffffffffff811115610bec57600080fd5b610bf88a828b01610aa8565b91505092959891949750929550565b600081518084526020840193506020830160005b82811015610c425781516001600160a01b0316865260209586019590910190600101610c1b565b5093949350505050565b600081518084526020840193506020830160005b82811015610c42578151865260209586019590910190600101610c60565b6000602082016020835280845180835260408501915060408160051b86010192506020860160005b82811015610d8157868503603f19018452815180516001600160a01b0316865260208101516101206020880152610ce16101208801826109e2565b905060408201518782036040890152610cfa82826109e2565b915050606082015160608801526080820151608088015260a082015160a088015260c082015187820360c0890152610d3282826109e2565b91505060e082015187820360e0890152610d4c8282610c07565b9150506101008201519150868103610100880152610d6a8183610c4c565b965050506020938401939190910190600101610ca6565b50929695505050505050565b600181811c90821680610da157607f821691505b60208210810361093857634e487b7160e01b600052602260045260246000fd5b6020808252602c908201527f54686520646561646c696e652073686f756c642062652061206461746520696e60408201526b103a343290333aba3ab9329760a11b606082015260800190565b601f821115610e5757806000526020600020601f840160051c81016020851015610e345750805b601f840160051c820191505b81811015610e545760008155600101610e40565b50505b505050565b815167ffffffffffffffff811115610e7657610e76610a92565b610e8a81610e848454610d8d565b84610e0d565b6020601f821160018114610ebe5760008315610ea65750848201515b600019600385901b1c1916600184901b178455610e54565b600084815260208120601f198516915b82811015610eee5787850151825560209485019460019092019101610ece565b5084821015610f0c5786840151600019600387901b60f8161c191681555b50505050600190811b01905550565b634e487b7160e01b600052601160045260246000fd5b600060018201610f4357610f43610f1b565b5060010190565b81810381811115610f5d57610f5d610f1b565b92915050565b80820180821115610f5d57610f5d610f1b565b634e487b7160e01b600052603260045260246000fdfea264697066735822122082be07609a639334b85aca42d2c85e38cbf3a964b2c3a220a00e602cfa80e18f64736f6c634300081c0033",
  "linkReferences": {},
  "deployedLinkReferences": {}
}